{
  "contractName": "Point",
  "abi": [
    {
      "inputs": [],
      "payable": false,
      "stateMutability": "nonpayable",
      "type": "constructor"
    },
    {
      "constant": true,
      "inputs": [],
      "name": "manager",
      "outputs": [
        {
          "internalType": "address",
          "name": "",
          "type": "address"
        }
      ],
      "payable": false,
      "stateMutability": "view",
      "type": "function"
    },
    {
      "constant": true,
      "inputs": [
        {
          "internalType": "uint256",
          "name": "",
          "type": "uint256"
        }
      ],
      "name": "users",
      "outputs": [
        {
          "internalType": "string",
          "name": "name",
          "type": "string"
        },
        {
          "internalType": "uint256",
          "name": "point",
          "type": "uint256"
        }
      ],
      "payable": false,
      "stateMutability": "view",
      "type": "function"
    },
    {
      "constant": false,
      "inputs": [
        {
          "internalType": "string",
          "name": "_name",
          "type": "string"
        }
      ],
      "name": "addUser",
      "outputs": [],
      "payable": false,
      "stateMutability": "nonpayable",
      "type": "function"
    },
    {
      "constant": false,
      "inputs": [
        {
          "internalType": "uint256",
          "name": "_index",
          "type": "uint256"
        },
        {
          "internalType": "uint256",
          "name": "_point",
          "type": "uint256"
        }
      ],
      "name": "increase",
      "outputs": [],
      "payable": false,
      "stateMutability": "nonpayable",
      "type": "function"
    },
    {
      "constant": false,
      "inputs": [
        {
          "internalType": "uint256",
          "name": "_index",
          "type": "uint256"
        },
        {
          "internalType": "uint256",
          "name": "_point",
          "type": "uint256"
        }
      ],
      "name": "decrease",
      "outputs": [],
      "payable": false,
      "stateMutability": "nonpayable",
      "type": "function"
    },
    {
      "constant": true,
      "inputs": [
        {
          "internalType": "uint256",
          "name": "_index",
          "type": "uint256"
        }
      ],
      "name": "getUser",
      "outputs": [
        {
          "internalType": "string",
          "name": "",
          "type": "string"
        },
        {
          "internalType": "uint256",
          "name": "",
          "type": "uint256"
        }
      ],
      "payable": false,
      "stateMutability": "view",
      "type": "function"
    },
    {
      "constant": true,
      "inputs": [],
      "name": "getCount",
      "outputs": [
        {
          "internalType": "uint256",
          "name": "",
          "type": "uint256"
        }
      ],
      "payable": false,
      "stateMutability": "view",
      "type": "function"
    }
  ],
  "bytecode": "0x608060405234801561001057600080fd5b50336000806101000a81548173ffffffffffffffffffffffffffffffffffffffff021916908373ffffffffffffffffffffffffffffffffffffffff160217905550610722806100606000396000f3fe608060405234801561001057600080fd5b506004361061007d5760003560e01c8063a87d942c1161005b578063a87d942c14610235578063b0467deb14610253578063cbd1dc2114610301578063e353a3ad146103395761007d565b806318b8275a14610082578063365b98b21461013d578063481c6a75146101eb575b600080fd5b61013b6004803603602081101561009857600080fd5b81019080803590602001906401000000008111156100b557600080fd5b8201836020820111156100c757600080fd5b803590602001918460018302840111640100000000831117156100e957600080fd5b91908080601f016020809104026020016040519081016040528093929190818152602001838380828437600081840152601f19601f820116905080830192505050505050509192919290505050610371565b005b6101696004803603602081101561015357600080fd5b81019080803590602001909291905050506103ed565b6040518080602001838152602001828103825284818151815260200191508051906020019080838360005b838110156101af578082015181840152602081019050610194565b50505050905090810190601f1680156101dc5780820380516001836020036101000a031916815260200191505b50935050505060405180910390f35b6101f36104b6565b604051808273ffffffffffffffffffffffffffffffffffffffff1673ffffffffffffffffffffffffffffffffffffffff16815260200191505060405180910390f35b61023d6104db565b6040518082815260200191505060405180910390f35b61027f6004803603602081101561026957600080fd5b81019080803590602001909291905050506104e8565b6040518080602001838152602001828103825284818151815260200191508051906020019080838360005b838110156102c55780820151818401526020810190506102aa565b50505050905090810190601f1680156102f25780820380516001836020036101000a031916815260200191505b50935050505060405180910390f35b6103376004803603604081101561031757600080fd5b8101908080359060200190929190803590602001909291905050506105ce565b005b61036f6004803603604081101561034f57600080fd5b8101908080359060200190929190803590602001909291905050506105fe565b005b61037961062e565b6040518060400160405280838152602001600081525090506001819080600181540180825580915050906001820390600052602060002090600202016000909192909190915060008201518160000190805190602001906103db929190610648565b50602082015181600101555050505050565b600181815481106103fa57fe5b9060005260206000209060020201600091509050806000018054600181600116156101000203166002900480601f0160208091040260200160405190810160405280929190818152602001828054600181600116156101000203166002900480156104a65780601f1061047b576101008083540402835291602001916104a6565b820191906000526020600020905b81548152906001019060200180831161048957829003601f168201915b5050505050908060010154905082565b6000809054906101000a900473ffffffffffffffffffffffffffffffffffffffff1681565b6000600180549050905090565b60606000600183815481106104f957fe5b90600052602060002090600202016000016001848154811061051757fe5b906000526020600020906002020160010154818054600181600116156101000203166002900480601f0160208091040260200160405190810160405280929190818152602001828054600181600116156101000203166002900480156105be5780601f10610593576101008083540402835291602001916105be565b820191906000526020600020905b8154815290600101906020018083116105a157829003601f168201915b5050505050915091509150915091565b80600183815481106105dc57fe5b9060005260206000209060020201600101600082825403925050819055505050565b806001838154811061060c57fe5b9060005260206000209060020201600101600082825401925050819055505050565b604051806040016040528060608152602001600081525090565b828054600181600116156101000203166002900490600052602060002090601f016020900481019282601f1061068957805160ff19168380011785556106b7565b828001600101855582156106b7579182015b828111156106b657825182559160200191906001019061069b565b5b5090506106c491906106c8565b5090565b6106ea91905b808211156106e65760008160009055506001016106ce565b5090565b9056fea265627a7a7231582043879a258f3253fca1e74d31fa9abb91d3133c921e203d03484c1e0264c859dc64736f6c63430005100032",
  "source": "pragma solidity >=0.4.24 <0.7.0;\n\ncontract Point {\n    address public manager;\n\n    constructor() public {\n        manager = msg.sender;\n    }\n\n    struct User {\n        string name;\n        uint256 point;\n    }\n\n    User[] public users;\n\n    function addUser(string memory _name) public {\n        User memory newUser = User({\n            name: _name,\n            point: 0\n        });\n        users.push(newUser);\n    }\n\n    function increase(uint _index, uint _point) public {\n        users[_index].point += _point;\n    }\n\n    function decrease(uint _index, uint _point) public {\n        users[_index].point -= _point;\n    }\n\n    function getUser(uint _index) public view returns(string memory, uint) {\n        return (users[_index].name, users[_index].point);\n    }\n\n    function getCount() public view returns(uint) {\n        return users.length;\n    }\n\n}\n",
  "sourcePath": "/Users/chayutaroonsang/Downloads/Project/testing/contracts/Point.sol",
  "compiler": {
    "name": "solc",
    "version": "0.5.16+commit.9c3226ce.Emscripten.clang"
  },
  "schemaVersion": "3.0.23",
  "updatedAt": "2020-02-10T10:54:39.399Z",
  "networkType": "ethereum",
  "devdoc": {
    "methods": {}
  },
  "userdoc": {
    "methods": {}
  }
}